S0150000426173652054656D706C6174652E7372656338
S214080000607C07203D370800393708003937080074
S214080010393708003937080039370800000000006B
S214080020000000000000000000000000F940080082
S214080030393708000000000075410800B141080083
S21408004039370800393708003937080039370800C3
S21408005039370800393708003937080039370800B3
S214080060750708003937080000000000B9200800A6
S214080070CD200800E1200800F52008000000000058
S21408008000000000410E0800510E0800610E08002E
S214080090710E080039370800B9060800C9060800B6
S2140800A039370800000000003937080039370800DB
S2140800B03937080039370800393708003937080053
S2140800C03937080039370800393708003937080043
S2140800D03937080039370800393708003937080033
S2140800E04129080039370800393708003937080029
S2140800F03937080010B5054C237833B9044B13B1CB
S2140801000448AFF300800123237010BDE00C0720DD
S21408011000000000C0CE080008B5064B1BB1064814
S2140801200649AFF300800648036813B1054B03B1D0
S214080130984708BD00000000C0CE0800E40C072061
S214080140C0CE08000000000008B5044B9847002001
S214080150034B9847034B984708BD00BFF12108009A
S214080160612208007522080010B50E480E4B984705
S21408017000203E210D4B98470D4CA0470028FCD088
S2140801800C4B98470C4A0D4B9A620D4CA04700281A
S214080190FCD010200B4B98470B4B98470148024B56
S2140801A0984710BD00BD0105A50007206D21080071
S2140801B0C1210800D1210800013F0D2000060E408D
S2140801C0E121080009210800ED37080030B40D4683
S2140801D069B1036893420CD00346002003E053F845
S2140801E0104F944206D00130A842F8D102E0002011
S2140801F000E0002030BC7047002A0EDD0B788342F2
S2140802000DD00B460139114403E013F8012F824242
S21408021007D08B42F9D10020704700207047012094
S21408022070470120704700BFF8B504460E461546CD
S21408023010F0010F08D00120224B9847706018B9BB
S21408024021487A21214B984714F0040F18D0012032
S214080250002103221E4B9847306030B100210A4621
S2140802600B461C4FB84733681BB917488321174BF2
S2140802709847306800210A460B46174EB04701E0FB
S2140802800023336014F0080F19D0C5B101200021EF
S21408029003220F4B9847286030B100210A460B46C8
S2140802A00C4CA0472B681BB907489621074B984764
S2140802B0286800210A460B46074CA047F8BD0023CD
S2140802C02B60F8BDE146080068B30800895F08009F
S2140802D021450800B1450800E947080038B5044636
S2140802E00D460F2903D91548AC21154B9847092DFB
S2140802F003D81248AE21124B9847E1B201F01F030B
S21408030001229A4063099B0003F1604303F56143A9
S214080310C3F88021002C06DA01F00F012D01EDB29A
S2140803200848455407E02D01EDB204F1604404F591
S214080330614484F800531A6038BD00BF68B30800EB
S214080340895F080014ED00E02DE9F0410446904668
S2140803501F468669B14204D1C36853B945686D1A09
S21408036008E08E4232BFC6EB01054568C6EB0505B8
S21408037000E00025BD420AD3AF4207D0206900211D
S2140803800A460B460E4DA8473D4600E03D46404609
S214080390A1692A460B4B98472E4463689E4206D3AB
S2140803A0094B98472368A361084B984704E0064B17
S2140803B09847A661054B98472846BDE8F08100BFD8
S2140803C0B1450800D56208003941080059410800BF
S2140803D030B583B004460D46436893B168460D4B66
S2140803E09847606800212A680B460B4CA04750B116
S2140803F068462946094B9847012806D100202860F8
S21408040004E0002002E0FD2000E0002040B203B037
S21408041030BD00BFDD550800E94708000D56080046
S214080420F0B583B00E4615461C46089B13B103600C
S214080430184601E0006820B100210A460B46134F13
S214080440B847009601959DF824307BB120464FF4B6
S21408045000710F4B98472046694600220D4B984777
S21408046020464FF480710C4B98470CE0204602213A
S214080470074B9847204669460022084B984720466F
S2140804800121054B984703B0F0BD00BFE9470800B7
S214080490D91E08009D1E0800CD1E0800B51E0800BF
S2140804A010B549B9006848B10B46064CA047012864
S2140804B014BFFD20002002E0002000E0002040B22B
S2140804C010BD00BFE94708002DE9F04182B0064696
S2140804D00023019303016E4AD55828466D4B98476A
S2140804E0074628466C4B9847074017F4005F49D0E4
S2140804F0674B03EB061358684FF40071674B984731
S21408050028464FF40051664B984700242B6A13F090
S214080510040F04D10134B4F1FF3FF7D102E04FF0E5
S214080520000801E04FF0010802232B605D4B53F8EA
S214080530362003EBC6035B68134413F8013C6B6371
S2140805402B6A13F0010F05D10134B4F1FF3FF7D140
S2140805504FF00108544B03EBC603586828B1002136
S21408056001AA0B46DFF844C1E047B4F1FF3F0BD0C1
S2140805704D4B53F8360038B1002101AA0B464B4CB8
S214080580A04701E04FF0000817F4805F52D0404BB8
S21408059003EB061358680221404B984728464FF449
S2140805A080513F4B984700242B6A13F0020F03D163
S2140805B00134B4F1FF3FF7D102232B60394B53F8CF
S2140805C0361003EBC6035A68286B8B1803F8020C20
S2140805D02B6A13F0020F04D10134B4F1FF3FF7D1B0
S2140805E011E0B4F1FF3F0ED02B6B0A4402F8013C31
S2140805F000242B6A13F0010F05D10134B4F1FF3F34
S214080600F7D14FF00108284B03EBC603586828B10A
S214080610002101AA0B46DFF894C0E047B4F1FF3F7B
S21408062008D0234B53F8360020B1002101AA0B4608
S2140806301E4CA04717F4507F02D1B8F1000F1FD008
S214080640134B03EB0613586840F20221134B9847E6
S21408065017F4807F04BF02232B6028464FF400510E
S2140806600F4CA04728464FF48051A0470E4B03EB8B
S214080670C606706820B1002101AA0B460B4CA0479D
S214080680019B0BB10B4B984702B0BDE8F08100BF49
S214080690B0B30800AD220800B1220800D91E080031
S2140806A0A52208000C0D07201C0D07204947080046
S2140806B0FC0C07201941080008B50020014B984794
S2140806C008BD00BFC904080008B50120014B9847BB
S2140806D008BD00BFC9040800F8B50546C0EBC0044D
S2140806E01C4B03EB8404A269A3689A4207D111B98C
S2140806F00022E26008E061688A1AE26004E09A4232
S21408070098BF6268D21AE260E2681344626893424D
S21408071004D9114840F25621104B9847E36893B124
S2140807200F4E2D0173195F68384604F10801002240
S2140807300C4B9847384601210B4B984770590921AE
S2140807400A4B9847F8BD2D01054B58590921084B07
S2140807509847F8BD2C0D0720D0B30800895F08001D
S21408076010B40800B51E0800CD1E0800B522080003
S214080770B922080030B583B000230193344D2846CB
S214080780344B984704462846334B9847044014F0A1
S214080790100F13D028461021304B9847304B586816
S2140807A020B1002101AA0B462E4DA8472C4B1868ED
S2140807B020B1002101AA0B462A4DA84714F0080FBD
S2140807C027D0294B9B6923B9284840F29A21284B01
S2140807D09847254B9B69012B04D124484FF4277171
S2140807E0234B9847204BD9689A680A449A605B68F6
S2140807F09A4202D31C4B1A689A60002001461D4B89
S2140808009847194B186920B1002101AA0B46154DC7
S214080810A84744B9144B186998B1002101AA0B4699
S214080820104CA0470DE014F0E00F0AD00848124B11
S21408083098470B4B586820B1002101AA0B46094C73
S214080840A047019B0BB10D4B984703B030BD00BFC6
S21408085000080E40C1220800BD220800B922080080
S214080860480D0720494708002C0D0720D0B308007C
S214080870895F0800D9060800C52208001941080043
S214080880F8B50546C0EBC0041D4B03EB8404A2690B
S214080890A3689A4207D111B90022E26008E06168AD
S2140808A08A1AE26004E09A4298BF6268D21AE26046
S2140808B0E26813446268934204D9124840F29B21C6
S2140808C0114B9847E3689BB1104E2D0173195F686A
S2140808D0384604F1080100220D4B98473846012196
S2140808E00C4B984770594FF484710B4B9847F8BDDA
S2140808F02D01064B58594FF48471084B9847F8BD9C
S214080900500D072020B40800895F080060B408006E
S214080910B51E0800CD1E0800193708001D37080048
S2140809202DE9F04383B004460023019303013D4AB2
S214080930D75838463C4B9847064638463B4B984768
S2140809400640DFF81091C4EBC4084FEA880809EBA4
S214080950080516F0100F18D038461021344B984763
S214080960344B03EBC403586828B1002101AA0B4690
S214080970DFF8D4C0E0472F4B53F8340028B10021E5
S21408098001AA0B46DFF8C0C0E04716F0080F24D0CF
S214080990AB6923B9284840F2DF21284B9847AB6952
S2140809A0012B04D1244840F2E121244B9847EA68F9
S2140809B0AB681344AB606A68934224BF59F80830A2
S2140809C0AB60204600211E4B9847286928B10021B5
S2140809D001AA0B46DFF870C0E04716F4807F09D0FE
S2140809E03846184B9847286920B1002101AA0B46BB
S2140809F0154DA84716F0E00F0CD03846134B98470D
S214080A000C4B03EBC404606820B1002101AA0B4616
S214080A100D4CA047019B0BB10D4B984703B0BDE8A2
S214080A20F08300BF60B408002537080021370800A7
S214080A301D370800C00D072020B40800895F08008D
S214080A408108080031370800494708002937080098
S214080A5019410800500D07202DE9F04782B00546D9
S214080A608946164602AF002307F8043D5D48042170
S214080A702A465D4B98470446307B394601225B4B35
S214080A809847032C00F3A780002800F0A680C4EB44
S214080A90C403574A02EB83039B691BB15548E721F9
S214080AA0554B98472846554B98472846544B9847E1
S214080AB04C4F07EB0417D7F80480404640F2022153
S214080AC0504B9847B868504B9847337B23B928460D
S214080AD049464E4A4E4B984728464FF0FF314D4BF5
S214080AE09847707B4C4901EBC40100224B4B984752
S214080AF03368002B55D04FF0FF300021484B9847FD
S214080B00C4EBC4033A4A02EB8303186120B9394898
S214080B104FF49271384B9847D9F80010414BA3FB15
S214080B20012128468909404B984728463F4B984755
S214080B30DFF8BC90E300C4EB030A4FEA8A0A09EB25
S214080B400A073268BA607268FA601B1B09EB8301F1
S214080B50404608310022364B98473368BB61BB686D
S214080B6049F80A30726813447B60737B13F0020FEF
S214080B700DD001202F4B9847C4EBC40309EB830321
S214080B80586120B91B484FF4A5711B4B9847284657
S214080B904FF48471284B984740460121274B9847C5
S214080BA006E0C4EBC403124A02EB830301229A61EF
S214080BB00C4F24013B1993F90C00B168204B984759
S214080BC03859E0211C4B984728461E4B984728461C
S214080BD01D4B984702E0002500E00025284602B095
S214080BE0BDE8F08760B40800CD010800F9010800E8
S214080BF0500D072020B40800895F0800FD3608005D
S214080C000D370800D91E08000922080000BD010596
S214080C10A13608001D370800C00D07202902080065
S214080C20814508001F85EB51153708003137080045
S214080C30B51E0800E146080019370800CD1E080052
S214080C40DD020800F5360800053708002DE9F041F2
S214080C5084B006468846174603931748042132464A
S214080C60164B98470446032820DC154D05EBC005AF
S214080C70284603A9134B98470346C0B90E4B03EB07
S214080C80041463680A9A0092012201922846414693
S214080C903A460D4CA047304610210C4B984728463C
S214080CA00A99039A0A4B9847034600E0F82358B275
S214080CB004B0BDE8F08100BF60B40800CD010800AC
S214080CC0C00D0720D10308002104080019370800C2
S214080CD0A10408002DE9F04F85B00446884616465C
S214080CE001934A4804212246494B98470546C0EBDB
S214080CF0C002484B03EB82039B6923B946484FF46E
S214080D000871464B9847C5EBC503424A02EB830376
S214080D109B69012B04D1404840F222213F4B98475B
S214080D20032D5BDC3B4AC5EBC5039B00D11849681D
S214080D30D358CB1AB34253D302A8394B9847C5EBBE
S214080D40C503344A02EB8303586900284CD00021B7
S214080D50019A0B46334CA047012843D102A801A9A3
S214080D60314B984701283FD1C5EBC505294B03EB06
S214080D708503586900210A460B462C4CA04731E0EB
S214080D8038690021019A0B46D847DAF80430196802
S214080D90384608EB0402331BC847241809D0244BEE
S214080DA09847FB681BB928460121224B9847224BD7
S214080DB09847A64205D902A801A91B4B98470028C0
S214080DC0DED0C5EBC505134B03EB85056869C8B1CE
S214080DD000210A460B46154DA84713E0002411E0EB
S214080DE000240FE000240DE00024C5EBC507094BDE
S214080DF003EB8707DFF82CB0044B03EB051ADFF884
S214080E003C90BDE7204605B0BDE8F08F60B408000A
S214080E10CD010800500D072020B40800895F08009F
S214080E20DD550800E94708000D560800B1450800DA
S214080E30394108008108080059410800490308009C
S214080E4008B50020014B984708BD00BF21090800D7
S214080E5008B50120014B984708BD00BF21090800C6
S214080E6008B50220014B984708BD00BF21090800B5
S214080E7008B50320014B984708BD00BF21090800A4
S214080E80024B1A78013AD2B21A707047F811072046
S214080E9000207047002070471D4B1B7813F0800F0A
S214080EA012D003F06003202B28D1194B5B78212B36
S214080EB026D1174BDB88072B24D1154B154A9A6089
S214080EC007229A810120704703F06003202B1BD16C
S214080ED00F4B5878202804D0222814BF0020012061
S214080EE070470B4BDB88072B10D1094B0A4A1A614F
S214080EF0084A9A6007229A810120704700207047A6
S214080F000020704700207047002070470020704778
S214080F10445C0720E00D07201D0F0800704700BF3F
S214080F2008B50020104B1870104B1880104BA122E3
S214080F301A7020225A70588098800222DA80188107
S214080F400C4B4FF4E1321A601871587108229A71E6
S214080F50094B9847034620B1034A11780131C9B2B4
S214080F601170184608BD00BFF8110720281607207C
S214080F7014120720E00D0720C93D080030B583B0DD
S214080F80434B1B7813F0FF0F7FD1424B984730B185
S214080F90414B1C88414B9847844206D175E03E4B2E
S214080FA01C883F4B984784426FD0EFF31083D3F1E9
S214080FB0010538BF002572B6BFF35F8F0022394B94
S214080FC01A70394B1C78E4B2384B33F81430DBB956
S214080FD0374B1A8801321A802E4B984718B9344B6B
S214080FE01B88632B07D92B4B984768B1304B1B8857
S214080FF0B3F5487F08D2002D47D00122294B1A7036
S214081000BFF35F8F62B640E00022294B1A80294B57
S2140810101B7813F0FF0F06D1944214BF002201225A
S214081020214B1A7003E0D4F1010438BF00240122D2
S214081030174B1A7025B11B4B1A70BFF35F8F62B639
S21408104025461A4B33F81440B4F5007418BF01242B
S21408105064B1104B984720B1104B98470E4B188038
S21408106007E00F4B98470C4B188002E000220A4B0B
S2140810701A800E4B33F815300F4A0092812021460D
S2140810800E4A02EB45220E4CA04703B030BD00BF07
S214081090101207204D2F080000120720A92F08005D
S2140810A0992F080070020720EC0D0720F00D072086
S2140810B0E80D072024160720C5100800F40D0720A1
S2140810C0D531080008B578B9084B1B7813F0FF0F20
S2140810D014BF00220122064B23F81200054B187095
S2140810E0054B1870054B984708BD00BFEC0D072048
S2140810F0F00D072024160720101207207D0F080081
S21408110008B50020014B984708BD00BF7D0F0800B2
S21408111008B5064B1A78013AD2B21A701878044BFA
S21408112098470022034B1A7008BD00BF0C12072010
S2140811301D3E080004120720EFF3108372B6BFF3B3
S2140811405F8F00210A4A11700A4A128892B20A4929
S2140811500878C0B2094931F8100080B2801A2BB955
S2140811600122034B1A70BFF35F8F62B6704700BF49
S21408117070020720FC11072008120720F411072028
S21408118008B5034B9847003018BF012008BD00BFBC
S2140811903911080010B582B0EFF31083D3F10103BC
S2140811A038BF002372B6BFF35F8F0021224A117042
S2140811B0224A1478E4B2224A127812F0FF0F08D1B5
S2140811C0204A118889B2204A32F8142092B29142F5
S2140811D009D2002B2CD00122174B1A70BFF35F8F51
S2140811E062B6002025E00021164A11808C4214BF02
S2140811F000210121114A11700121114A117023B1F1
S2140812000D4B1970BFF35F8F62B600200F4B9847DF
S21408121010B100200E4B98470E4B00930220012178
S2140812200D4A02EB44224FF400730C4CA04700E032
S214081230002002B010BD00BF700207200812072069
S21408124020160720FC110720F4110720811108003A
S214081250D53D0800F112080020120720D5310800F5
S21408126010B50024154B1C70154B1C70154B1C70C4
S214081270154B1C70154B1C805C80154B1C8020463B
S214081280144B9847144B1C70144B1C70144B1C8042
S2140812905C80144B1C802046134B9847024658B176
S2140812A0064B19780131C9B219701B78DBB2012BCD
S2140812B002D101210D4B1970104610BD0C120720E3
S2140812C01012072024160720EC0D0720F00D072023
S2140812D0001207207D0F0800201607200812072096
S2140812E0F4110720FC1107209511080004120720A6
S2140812F010B582B0E0B90F4B1B7813F0FF0F14BF80
S2140813000023012359B90C490091104601210B4AC4
S21408131002EB43224FF40073094CA04708E089B259
S214081320084A22F813100020074B1870074B9847F6
S21408133002B010BD08120720F1120800201207207C
S214081340D5310800F411072020160720951108004B
S21408135008B50020014B984708BD00BF811108005A
S2140813602DE9F047224B93F80690B9F1090F14BF00
S2140813704FF000094FF001094FF0000C1D4CE046F5
S21408138067461D4D1D4EEFF3108072B6BFF35F8F94
S21408139027702B889BB23278D2B2194931F81210CE
S2140813A089B220B901202070BFF35F8F62B68B42E6
S2140813B007D3144B1B7813F0FF0FE4D10020BDE8C9
S2140813C0F08703EB4222104911F802A04CEA0A0AF9
S2140813D001339BB22B8040460C4B9847B9F1000F5F
S2140813E003D04FEA0A2CC146CDE75046BDE8F08741
S2140813F0E00D072070020720FC11072008120720BE
S214081400F41107200412072020120720951108005F
S21408141008B50020014B984708BD00BF61130800B7
S214081420EFF3108272B6BFF35F8F0021144B19706A
S214081430144B1B78DBB2144931F81300B0F5007F63
S21408144013D11249097811F0FF0F0ED11049097807
S21408145011F0FF0F09D101200D490870D3F10103DF
S21408146038BF002307490B700020C0F500702AB962
S2140814700122034B1A70BFF35F8F62B6704700BF36
S21408148070020720EC0D0720F00D07201012072029
S2140814902416072008B5034B9847003018BF0120CC
S2140814A008BD00BF211408002DE9F0410C461B4B6F
S2140814B09E79092E14BF00260126194D194FDFF80C
S2140814C074800020A84730B9174B1B7813F0FF0F1D
S2140814D0F7D1BDE8F081EFF3108172B6BFF35F8FE6
S2140814E000233B7098F80030DBB2104830F8132021
S2140814F002F1010C20F813C002EB43230C4AD45423
S21408150021B901233B70BFF35F8F62B616B1241270
S2140815100026D6E70120BDE8F08100BFE00D0720D1
S214081520951408007002072004120720F00D072003
S214081530F40D0720EC0D072008B501460020014BE6
S214081540984708BDA91408002DE9F84F884615469F
S2140815501F4B9B79092B08BF5500DFF88CA000208D
S214081560D04738B91B4B1B7813F0FF0FF7D1284626
S214081570BDE8F88FEFF3108B72B6BFF35F8F0023CA
S214081580154A1370154B1E78F6B2DFF8609039F8D6
S2140815901670C7F50074A54238BF2C4607EB4623DD
S2140815A00F481844414622460E4B9847274429F8C8
S2140815B016705B462BB90123074A1370BFF35F8F7B
S2140815C062B6A0442D1BCAD10020BDE8F88F00BF24
S2140815D0E00D07200412072070020720EC0D0720F4
S2140815E0F40D0720D562080095140800F00D0720B2
S2140815F008B503460A4600201946014B984708BD19
S214081600491508000F4B1B681B685A881A4403784C
S2140816101844904210D24378042B0FD08B4205D141
S21408162070474378042B0BD08B420AD003781844B3
S2140816309042F6D30020704700207047002070477D
S214081640002070472C16072008B5034B987800F042
S2140816507F00024B984708BD445C0720612F0800AE
S21408166010B4164B1B7803B3154B1B681B681A7906
S21408167082421CD9134A13605C881C44A34218D2C1
S2140816805A78042A09D19A78824206D1DA788A42A8
S21408169003D10C4A136001200CE01A781344A342C5
S2140816A0EED3084A1360002004E0002002E0002081
S2140816B000E000205DF8044B704700BF381607208E
S2140816C02C1607203C1607202DE9F843044600216F
S2140816D0124B98478046E8B1114B1B685B6853F875
S2140816E02490D9F80C309847014620460B4B98476B
S2140816F0804678B10B4B1C6805260B4D0B4F2046D1
S2140817003146A847044610B18078B847F7E7D9F8B5
S214081710043098474046BDE8F88300BF61160800C5
S2140817202C1607203C16072005160800C52F0800AB
S2140817302DE9F0418046104B98470346C8B10F4B39
S2140817401C6805260E4D0F4F20463146A84704460E
S21408175038B18078E178A288B84703460028F3D1E4
S21408176007E0094B1B685B6853F828301B689847E6
S21408177003461846BDE8F081611608003C160720A7
S21408178005160800C93208002C16072008B5014BB4
S214081790984708BD0D27080070B50D4B1B7883B118
S2140817A00C4B1B681B681B795BB100240A4E094D5D
S2140817B02046B0470134E4B22B681B681B79A34265
S2140817C0F6D80022024B1A700122044B1A8070BD0C
S2140817D0381607202C160720C916080034160720C6
S2140817E038B50C4B1B789BB10B4B1B681A681279E3
S2140817F072B10024084D5B6853F824301B6903B1A6
S21408180098470134E4B22B681A681279A242F2D8D3
S21408181038BD00BF381607202C1607202DE9F041E2
S214081820884B00229A811A615A611B7813F0800F40
S21408183000F0D082834AD288002A40F0CF82C5E2E0
S21408184013F01F0340F0D0807E49497806290FD050
S214081850082900F0BF80002940F0C680022A05D17A
S21408186079480221794B984701245BE2002459E223
S214081870744B5B88DDB21A0A013A0E2A00F29E8083
S214081880DFE802F00819739C9C3E459C9C9C9C9C37
S2140818909C9C6A006E4B984730B96E4B9B681846FE
S2140818A019786A4B984780E06A4B1B68184619787F
S2140818B0664B984779E0664B9847044668B1654B8F
S2140818C09B685B7CAB427BD9624B1B6953F835300F
S2140818D0184659885D4B98470DE05E4B1B685B7C45
S2140818E0AB4240F21F825B4B5B6853F835301846B4
S2140818F05988564B9847534B9B6802225A7054E0B7
S214081900544BDB6818461978504B98474DE0504BB7
S2140819109847044670B94F4B9B685B7CAB4240F2D5
S21408192001824C4B1B6953F8353018465988474B8B
S21408193098470CE0474B1B685B7CAB4242D9454B4B
S2140819405B6853F8353018465988404B98473D4BE6
S2140819509B6807225A7028E03E4B5B69002B33D001
S21408196018465988394B98471FE0DBB2012B08D038
S21408197013B1022B08D029E037480421334B984787
S21408198013E0364C052001E0354C1120354A00237B
S214081990E15C22F8021F0133D9B28142F8D3410034
S2140819A0023130480170294B9847264BDA889B89C4
S2140819B093420DD9234B9A810124B3E10024B1E167
S2140819C00024AFE10024ADE10024ABE10024A9E146
S2140819D00124A7E1012A05D1234801211B4B98477A
S2140819E001249FE100249DE1012B45D11549497842
S2140819F00A2941D1012A1ED11B4B1B78EBB1114B8A
S214081A001D791A4B1E6833681B79AB4217D92846CE
S214081A100021174B98470446002800F08381736816
S214081A2053F82530DB689847124B18701846012182
S214081A30064B984776E1002474E1002472E10024FE
S214081A4070E100BF445C072034160720B92F080051
S214081A504D2F0800A00107206C020720400207202F
S214081A602C02072048020720381607202C160720C5
S214081A706116080030160720022B40F05581894B66
S214081A805B78002B40F04B81022A0BD1854B1879E6
S214081A90854B9847854B188018460221844B9847F3
S214081AA001243FE100243DE113F01F0340F0C68007
S214081AB07C4A5278013A082A00F2C080DFE812F021
S214081AC01300BE002500BE000900BE00BE00BE0012
S214081AD05A00744BDB8823B9764A724B1A61012484
S214081AE020E100241EE16F4BDB8853B96D4B5B8801
S214081AF0012B08D1704B1A8822F002021A800124A2
S214081B0010E100240EE100240CE1664BDB88002B74
S214081B1028D1644B5B88022B26D1684B984704462D
S214081B20002800F0FF805F4B1B79FBB9644B984791
S214081B305C4B9B881B0A013B032B19D8DFE803F094
S214081B4002060A0E5F4A574B1A61EBE05E4A554B8F
S214081B501A61E7E05D4A534B1A61E3E05C4A514B71
S214081B601A61DFE00024DDE00024DBE00024D9E091
S214081B700024D7E04B4BDB88002B57D1554B9847B2
S214081B80002855D04D4B9847044638B1454B9A78AF
S214081B90514B9B685B7C9A4208DD4BE0414B9A7838
S214081BA04D4B1B685B7C9A4200F3BC80444B9847BD
S214081BB03C4B9B78494A1370002B3DD03F4B9847C7
S214081BC098B1464B1B7803F10053013B424A126911
S214081BD002EBC303424A1360414B1B681B681B7920
S214081BE00124002B00F09E800BE03C4B1B7803F191
S214081BF00053013B384A526802EBC303384A136065
S214081C00EAE700252F46374EDFF8D48028463946BF
S214081C10B0470446002800F085800135EDB2D8F8B4
S214081C2000301B681B79AB42F0D87BE0002479E0D3
S214081C30002477E0002475E0012473E0012B1CD112
S214081C40184A52780B2A18D1164BDB888BB9234BC7
S214081C501B7883B1134B1D795E882846224B98471C
S214081C60044600285ED02846F1B21E4B9847044624
S214081C7058E0002456E0002454E0022B54D1094BC7
S214081C805B78012B02D0032B36D04AE0054BDB8865
S214081C9073BB044B5B886BBB024B1879134B984796
S214081CA004463FE0445C07201D3008004016072025
S214081CB0B92F080049160800341607204D2F0800CB
S214081CC09917080025350800413508005D350800D5
S214081CD071350800892F0800A0010720381607204C
S214081CE02C16072031170800C916080019310800F5
S214081CF0002417E0002415E03C4BDB885BB93B4B1F
S214081D005B8853B9394C2079394B98472079394B39
S214081D109847044606E0002404E0002402E0002475
S214081D2000E00024002C5DD1304B1B7803F01F0325
S214081D30012B1ED1304B1B78DBB12C4B1C792F4B5B
S214081D401D682B681B79A34213D9204600212C4B0B
S214081D50984770B16B6853F82450EB68984701466B
S214081D602046274B984720B1AB689847044600287A
S214081D7038D11E4B1B7803F01F03022B28D11E4BAD
S214081D801B78FBB11D4B1B681A681279E2B1002557
S214081D901B4FDFF868805B6853F82560F368984740
S214081DA001462846B8470446E0B1B3689847044653
S214081DB0C0B90135EDB2D8F800301A681279AA42CF
S214081DC0E9D80FE000240DE000240BE0002409E029
S214081DD0002407E013F0600FA6D165E613F0600F45
S214081DE0A2D12DE52046BDE8F08100BF445C07205F
S214081DF0A534080031300800381607202C160720AE
S214081E006116080010B54FF400421F4B5A600B20AD
S214081E101E4CA0470C20A0470D20A0470E20A04728
S214081E203B204FF060511A4CA04755204FF06051A8
S214081E30A04756204FF06051A04768201549A04794
S214081E405C201549A04719204FF00061A0471A20CA
S214081E504FF00061A0471B204FF00061A0471C20F0
S214081E604FF00061A04711204FF00061A0471220F4
S214081E704FF00061A0470A204FF00061A0470B20F2
S214081E804FF00061A04710BD501A0E400922080006
S214081E908D1F080079000028010000280B4619B19C
S214081EA0096881605B68C3601AB113688361536808
S214081EB0C36170470B4619B1096801605B684360E7
S214081EC01AB11368036153684361704721F0FE0135
S214081ED0C905C90D0162704721F4FE7121F00101A0
S214081EE08905890D016270474264B1F1805F16D09A
S214081EF004D8C1B1B1F1006F0AD013E0B1F1405F68
S214081F0011D0B1F1605F0ED0B1F1205F0AD17047F1
S214081F10036F016F0B4023EA0203036702E0036FB7
S214081F201343036742607047416412F0010F14BF01
S214081F304166016612F00A0F14BF0162416212F090
S214081F40020F02D0C0F8801004E012F0080F18BF85
S214081F50C0F8841041610160704700BF10B4416446
S214081F60019C0CB1416600E001660BB1016500E01A
S214081F7041650AB1016300E04163016101605DF8F3
S214081F80044B7047C06C7047806C704770B582B061
S214081F900D46440904F5001404F20774660201F0BD
S214081FA0F044B4F1205F30D006D8B4F1006F0AD000
S214081FB0B4F1805F18D049E0B4F1405F30D0B4F196
S214081FC0605F2DD042E000F01F00012484403046B8
S214081FD04FF0006122461F4B984715F0010F14BFBB
S214081FE074663466012032E000F01F000124844045
S214081FF030464FF080512246164B984715F0010F91
S21408200014BF74663466012021E000F01F01012425
S214082010304604FA01F12A460F4B9847204616E048
S21408202000F01F01012405F0605205EA040300933E
S214082030304604FA01F1B2F1605F14BF00220122B3
S214082040C5F38003054DA847204600E0002002B0EF
S21408205070BD00BFE91E0800291F08005D1F0800A4
S2140820602DE9F04104460E46104B98470546204693
S2140820700F4B9847054017D00E4F07F10C046C37E6
S21408208054F80C3CB3420AD154F8081C294206D02E
S21408209023683046984754F8083C25EA0305BC42AE
S2140820A002D01034002DEBD1BDE8F081851F080062
S2140820B0891F08004416072008B502480B21024B62
S2140820C0984708BD000E0E406120080008B5024873
S2140820D00C21024B984708BD00100E4061200800EE
S2140820E008B502480D21024B984708BD00120E405D
S2140820F06120080008B502480E21024B984708BD23
S21408210000140E4061200800174B1A6B22F070026C
S214082110104318639B6E13F0080F09D14FF4006341
S214082120114901E0013B19D08A6E12F0080FF9D068
S2140821300D4B1A6B22F0030242F002021A63986EE5
S21408214010F008000CD14FF40063074901E0013B8A
S21408215008D08A6E12F0080FF9D070470120704731
S214082160002070470120704700060E4038B111491C
S2140821700B6A114A1A40114B13430B6270470D4AFB
S214082180136A23F45C1323F0030343F45C1343F04D
S2140821900103090289B20B431362936E13F0010F11
S2140821A0FBD0044A136A43F09B7343F480331362EC
S2140821B0704700BF00060E40FCFFC8FE020037014D
S2140821C0024B986E00F48030704700BF00060E4041
S2140821D04FF00052014B9A62704700BF00060E404F
S2140821E0024B986E00F00200704700BF00060E40D3
S2140821F04FF44412034BDA611A46936E13F0400FFD
S214082200FBD0704700060E402C2820D81F280DD873
S214082210124B9A69012383401A40934219D001232E
S21408222003FA00F00D4B1861002070470B4BD3F8EB
S21408223008212038012383401A4093420BD00123FB
S21408224003FA00F0054BC3F8000100207047012090
S2140822507047002070470020704700BF00060E40F9
S214082260000200F4706242F00102014B9A63704764
S21408227000060E402022014B1A60704700060E40EA
S214082280034B1A6FC0F3120002431A67704700BF69
S21408229000060E40024B187880F00100704700BF19
S2140822A0B41607208162036A704700BF006A704749
S2140822B0C06A704781607047C160704700697047A0
S2140822C0406970474FF4807303607047EFF31083DC
S2140822D072B6BFF35F8F00210A4A117001210A4ABD
S2140822E0116023B9074B1970BFF35F8F62B60222DD
S2140822F0064B1A60064A0023136153619381054A08
S214082300137070477002072020C20A4060C10A4056
S214082310445C0720041707200522034B1A704FF465
S2140823200022024B1A60704704170720F0C10A40C3
S21408233003220D4B1A70EFF3108072B6BFF35F8F4F
S21408234000220A4B1A700A4901220A60094B1A60D1
S21408235008220A601A6028B90122044B1A70BFF3D3
S2140823605F8F62B6704700BF041707207002072009
S21408237060C10A40F0C10A4008B5024B1B6903B1A8
S214082380984708BD445C072038B5EFF3108372B64B
S214082390BFF35F8F0021484A11700121474A116038
S2140823A023B9454B1970BFF35F8F62B6444B1B7851
S2140823B0032B04D1434B9847434B984738BD434BB0
S2140823C01B88434A9489E41AA4B2002C2ED1414AA9
S2140823D011880B449BB213803D4AD2889A4202D099
S2140823E03D4B1B78C3B10422354B1A70EFF31082AD
S2140823F072B6BFF35F8F00212F4B19701023374931
S2140824000B6090310B60002A55D101222A4B1A70B6
S214082410BFF35F8F62B638BD2D4B5B696BB19847CB
S21408242058B10022294B1A80294B9C893F2C04D985
S2140824300022294B1A70402402E00122264B1A700B
S214082440234B9D68214B1A88EFF31080D0F10100CA
S21408245038BF002072B6BFF35F8F0021164B197085
S2140824601F4B1B6813F0020F01D15CB913E028B1AB
S2140824700122114B1A70BFF35F8F62B60422104B0D
S2140824801A7038BD2A44174B12F8011B03F8011BB3
S214082490D9B2A142F8D30D4B1A8814441C800123E4
S2140824A00E4A13609032136028B11A46024B1A700F
S2140824B0BFF35F8F62B638BD7002072020C20A409D
S2140824C00417072079230800CD22080006170720DE
S2140824D0445C0720B8160720B516072060C10A40D6
S2140824E030C10A400000182010B50346047D14F0D9
S2140824F0010F10D0047D6FF300040475046854B10E
S214082500054850F8220010F4807F18BF42F0800279
S21408251008469968A04710BD00C10A40F8B50246AB
S214082520411E01EB41004D4B03EBC003187D10F034
S214082530010F00F09280D8689C68A04267D0241AE1
S214082540B4F5803F92BF26044FF480340026444DED
S21408255055F8227017F4807F0FD055F82250C5F32F
S2140825600215082707FA05F5013D2C4216D03E430A
S2140825701D7D6FF341051D7510E055F82270C7F3F1
S214082580C127012F08D155F82250C5F30215082790
S21408259007FA05F5AC4201D846F01406314D05EBAE
S2140825A002155F6838446860EFF31080D0F1010CBC
S2140825B038BF4FF0000C72B6BFF35F8F00272A486B
S2140825C00770E86810F0100F16D146F02106AE60C6
S2140825D0DA682244DA601C614FF0007303FA01F1EE
S2140825E0224B9961BCF1000F37D001221E4B1A709E
S2140825F0BFF35F8F62B6F8BDBCF1000F05D00120AF
S21408260019490870BFF35F8F62B6D9689960144994
S21408261051F8221011F4807F1BD0197D11F0020F9B
S21408262017D00121124B43F82210303B53F82230C2
S21408263013F4803F1CBF0F4B43F8221001210E4BAA
S21408264043F822104FF4805303FA02F2074B9A61BC
S214082650F8BD18460021094B9847F8BDBC16072058
S21408266000C10A4000C30A407002072000C00A40A2
S21408267060C10A4090C10A40F0C10A40E924080037
S2140826800246002835D11D4B1B787BB31C4B9B7824
S21408269003B9FEE7EFF3108172B6BFF35F8F002031
S2140826A0184B1870164B987801389870F1B90121B4
S2140826B0144B1970BFF35F8F62B617E0104B9B7808
S2140826C0FF2B00D1FEE7EFF3108172B6BFF35F8FE2
S2140826D000200C4B18700A4B98780130987029B96E
S2140826E00121084B1970BFF35F8F62B6034B1A704F
S2140826F07047024B1B78002BF8D1DFE7BA16072085
S2140827003C5C0720700207200120704710B5EFF3E5
S214082710108472B6BFF35F8F0022514B1A702820C0
S214082720504B9847504B9847504BA02283F8282385
S2140827304FF480725A604FF480204D4B98474D4BAB
S214082740D3F8002822F08072C3F80028D3F80028AF
S21408275042F00072C3F80028D3F8002822F08072EE
S214082760C3F80028D3F8002842F48052C3F800289B
S214082770D3F8002842F40042C3F800281A6822F466
S21408278080521A601A6822F440621A60D3F8002849
S21408279022F48042C3F800281A46D2F8043813F404
S2140827A0804FFAD0344B1A7D02F0FE026FF3820295
S2140827B01A7593F82C2002F0FE026FF3820283F853
S2140827C02C2093F8442002F0FE026FF3820283F86E
S2140827D04420284B0222C3F80828D3F8043813F4F8
S2140827E0006F1CBF234BC3F80C28224BD3F80028D5
S2140827F042F00202C3F80028D3F8002842F48042C8
S214082800C3F800281D4B1B78F3B901221B4B1A701E
S21408281000221B4B1A701B4BDB78FF2B00D1FEE700
S214082820EFF3108272B6BFF35F8F00210C4B19705E
S214082830144BD9780131D9704AB90122084B1A705D
S214082840BFF35F8F62B602E000200F4B98472CB9A3
S2140828500122034B1A70BFF35F8F62B610BD00BF2C
S21408286070020720092208004901080000E100E07C
S2140828708122080000C00A40BC160720B6160720AA
S214082880BA1607203C5C07208126080070B5EFF3CF
S214082890108572B6BFF35F8F0022194B1A7001209D
S2140828A0184B9847184BD3F8002822F48042C3F8F0
S2140828B000281A46D2F8043813F4804FFAD0124B80
S2140828C01A6822F480721A6008269E6101219961AE
S2140828D010229A6104249C61022098619E609C6084
S2140828E09860D9609A60D3F8002842F48042C3F80A
S2140828F0002825B9024B1970BFF35F8F62B670BD0A
S214082900700207208126080000C00A4008B50A4B56
S214082910D3F8002822F48042C3F800281A6842F444
S21408292080721A60D3F8002842F48042C3F8002860
S2140829300020024B984708BD00C00A4081260800C0
S2140829402DE9F84F9C4B984760B99C4B5B6813F091
S214082950010F07D172B6BFF35F8F0022984B1A702B
S214082960BDE8F88F954B5B6813F0040F0CD0934BBB
S21408297004229A60D3F8043813F4405F40F0E182EA
S214082980904B9847BDE8F88F8C4B5B6813F0020FA6
S21408299006D00222894B9A608A4B9847BDE8F88F82
S2140829A0864B5B6813F4805F00F09282864B102299
S2140829B01A6008221A60F03B1B6813F0040F60D0F8
S2140829C0824B1B781BB1824B9847824B9847824BA9
S2140829D01B68C3F30A53082B06D0804B984704227B
S2140829E07F4B1A60BDE8F88F7E4B7F4D7F4C804842
S2140829F013F8011B5A1911558342F9D17D4B984794
S214082A0030B9764B98470422754B1A60BDE8F88FA4
S214082A100422734B1A60744B93F90030002B0BDAC0
S214082A200023754A1380754A13800222674B1A7072
S214082A30734B9847BDE8F88F6B4BDB881BB9714B17
S214082A409847BDE8F88F00236B4A13806B4A1380BB
S214082A5001215E4A1170102261490A60EFF3108165
S214082A6072B6BFF35F8F56480370674B1A6000292B
S214082A7040F0678201220270BFF35F8F62B6BDE83E
S214082A80F88F554B1B6813F0010F08D05F4B1B6877
S214082A9013F0010F03D05A4B9847BDE8F88F4E4BFA
S214082AA01B6813F0020F00F0B380484B1B78012B0D
S214082AB00CD0022B01D0042B02D1454B984701E0DD
S214082AC0464B9847434B9847BDE8F88F424B1868E3
S214082AD0C0F30A50444B9B89484A148822189342EC
S214082AE0AEBF80B2C4EB030398B23F4B9A68224449
S214082AF0A0B13C4B13F8011B02F8011BD9B2814266
S214082B00F8D30444A4B23D4B1C80402806D1364B6B
S214082B10DA88394B1B8823449A4213DC324B9C8153
S214082B205B6943B1984730B92C4B984702222C4B27
S214082B301A60BDE8F88F0222294B1A60314B984775
S214082B40BDE8F88F284B9B89A3421AD1264B5B69B0
S214082B5033B9224B98470222214B1A60BDE8F88FFA
S214082B60984730B91D4B984702221D4B1A60BDE89E
S214082B70F88F214A214B18881188014411800022B9
S214082B801A80174A0223136010231360EFF310828B
S214082B9072B6BFF35F8F0020094908701A490B60A8
S214082BA0002A40F0CE810122054B1A70BFF35F8FD2
S214082BB062B6BDE8F88F00BF9522080000C00A403C
S214082BC070020720E117080020C20A4004170720F1
S214082BD079230800CD22080030C10A4019230800CE
S214082BE060C10A4000001820445C0720FFFFE7DFAA
S214082BF0080018201D180800B81607200617072012
S214082C008923080031230800F0C10A40C0C10A40E1
S214082C10B44B1B6813F0080F13D00822B24B1A6087
S214082C20303B1B6813F0010F40F08B81AF4B1B78CD
S214082C30032B40F086814FF40022AD4B1A60BDE8A6
S214082C40F88FA84B1B6813F0100F00F04181102274
S214082C50A54B1A60303B1B6813F0020F40F07181D9
S214082C60A24B1B78012B03D1A24B9847BDE8F88FDF
S214082C70042B40F066814FF400229D4B1A60BDE895
S214082C80F88FDAB29C46A2462F695E1E08FA06F648
S214082C903E4218D06F683E4215D0974B03EB02139E
S214082CA0D96811F0010F40F04C8194494E61DB68F9
S214082CB01B0C03D0E168CB1AE360A3601046904B68
S214082CC09847BDE8F88F2E6909FA0CFC1CEA060F2F
S214082CD046D04FEA830B01F19007D1F8906016F0C2
S214082CE0010F14D00E6816F0010F10D0854B012185
S214082CF04BF803107C484BF800104FF480414BF813
S214082D00031050460021804B9847BDE8F88F3A6874
S214082D1012F4805F24D00A6812F4405F20D14FF482
S214082D208052784B4BF80320A3F50873C3F814C0F9
S214082D309AF814306FF382038AF81430734B5BF8F2
S214082D40032022F400724BF80320F0334FF40022DD
S214082D504BF803204FF480224BF80320BDE8F88F89
S214082D60013318340431042B8BD1E3E00822634B7B
S214082D709A60054600240127634E0134E4B22846CB
S214082D8039462246B0471835032CF6D1604B98478B
S214082D905A4B1A6822F07F021A601A6842F08002BC
S214082DA01A605A4A116821F4CB5121F01C0141F0EF
S214082DB030011160116841F002011160DA6942F0D1
S214082DC00102DA61EFF3108172B6BFF35F8F00205D
S214082DD0504A1070464A04201060022010604FF4D3
S214082DE080529A6129B901224A4B1A70BFF35F8F45
S214082DF062B6494B9847BDE8F88F404B1B6913F0FD
S214082E00010F1AD03D4B5B6813F0010F15D03B4BF2
S214082E10D3F8002822F48042C3F8002801225A6119
S214082E2010229A61D3F8002842F48042C3F800289A
S214082E3000203A4B9847BDE8F88F304B1B6913F0D3
S214082E40100F1ED02D4B5B6813F0100F19D02B4BAC
S214082E50D3F8002822F48042C3F8002803E05A6812
S214082E6012F0010F04D1D3F8042812F4804FF6D0DC
S214082E70224B10225A6101209861284B9847BDE8DA
S214082E80F88F1E4BD3F8043813F0020F59D01B4B9B
S214082E90D3F8002822F48042C3F800280222C3F898
S214082EA00828D3F8002842F48042C3F80028D3F84C
S214082EB0043813F4006F14BF194B1A4B98470F4B7E
S214082EC0D3F80408C0F3C020174B9847BDE8F88F1E
S214082ED01648044616490123084D4FF000784FF46B
S214082EE08059CEE630C10A4060C10A400417072060
S214082EF0F0C10A403123080000C30A4000C00A4057
S214082F001D25080020C20A40E924080000C10A401E
S214082F109917080070020720CD22080081260800AD
S214082F208D2808000D290800B13D0800BC160720AA
S214082F3034C10A40044B5B6813F0080F3FF45DAFDA
S214082F4014E7BDE8F88F00BF00C00A40034BD3F86B
S214082F50040810F4405018BF0120704700C00A400B
S214082F60084B1A6822F080021A601A6800F07F0080
S214082F7022F07F0202431A601A6842F080021A6042
S214082F80704700BF00C00A40024B186800F07F0078
S214082F90704700BF00C00A40024B186AC0F3CA0058
S214082FA0704700BF00C00A40024B186AC0F30D0005
S214082FB0704700BF00C00A40014B9860998170476F
S214082FC0445C072070B500F00F02032A1FD8104B88
S214082FD0D869012101FA02F420EA0400D86103F551
S214082FE0807353F8220020F0020043F82200541E93
S214082FF0084D04FA01F6301905EBC000064B984751
S214083000344405EBC4052B7D6FF382032B7570BD26
S21408301000C00A40BC160720E924080000F00F008C
S214083020024B53F82000C0F3C0407047C0C10A40A6
S21408303030B400F00F03032B54D8314A52F823203B
S21408304012F4002F50D15A1E02EB42022D4901EB12
S214083050C202117D11F0040F48D111F0010F47D1BB
S214083060EFF31081D1F1010138BF002172B6BFF32A
S2140830705F8F0025244C257010F0800F1AD0234847
S21408308050F8230010F4405F14D0107D40F0040080
S21408309010754FF480521E4840F8232002FA03F3B6
S2140830A0A0F5F870836129B301202070BFF35F8F05
S2140830B062B622E0174A52F8230020F4007042F85D
S2140830C023004020603242F823004FF4002090325C
S2140830D042F8230081B101200B4B1870BFF35F8FB5
S2140830E062B60AE0002008E0012006E0012004E0BD
S2140830F0002002E0012000E0012030BC704700BF3D
S214083100C0C10A40BC1607207002072030C10A401A
S214083110F0C10A4000C10A4038B500F00F00032885
S21408312040D82749431E03EB4303DC000B191A7DDE
S21408313012F0040F3AD01A7D6FF382021A754FF414
S2140831408052204D45F820208240A5F508756A6112
S214083150820005F5E07555F8200010F4002F15D00C
S2140831601948105810F0400F06D04025174815503B
S2140831704FF48025903015504FF40025114815500F
S214083180A0F59070155845F4007515501A7D12F084
S214083190010F09D01A7D6FF300021A750B5998476C
S2140831A0012038BD002038BD012038BD8200084DFA
S2140831B055F8200010F4002FD2D1012038BD00BFEA
S2140831C0BC16072020C20A4030C10A4060C10A4027
S2140831D0C0C10A402DE9F04100F00F0003285AD874
S2140831E0344CE46901258540254257D0324C54F8C2
S2140831F0204014F4002F54D1304E441E04EB4404EF
S214083200E5007419277D17F0040F4DD1EFF31087EA
S214083210D7F1010838BF4FF0000872B6BFF35F8FCA
S2140832204FF0000C264F87F800C0277D17F0010FD7
S2140832300BD0B8F1000F3AD00122214B1A70BFF319
S2140832405F8F62B66046BDE8F081277D47F00107CC
S2140832502775B8F1000F07D04FF0010E184F87F802
S21408326000E0BFF35F8F62B66260A3600022E26090
S2140832702261069A725121B9D3F1010338BF00239F
S21408328000E00123227D63F3410222750D4B984727
S2140832900120BDE8F0810020BDE8F0810020BDE8EF
S2140832A0F0810020BDE8F0810020BDE8F081002014
S2140832B0BDE8F08100C00A40C0C10A40BC1607201D
S2140832C0700207201D2508002DE9F04F83B000F096
S2140832D00F04032C00F2C7806C4BDB6926460125D9
S2140832E0A5401D4240F0C18011F0030300F0BF80E6
S2140832F0022B02D9032B02D0B9E0012700E00027F1
S2140833004FEA840C624D55F8243023F4CB5323F04F
S2140833101C03C90201F4C05100F0800000280CBF4D
S21408332000204FF48070A2F580681FFA88F8B8F578
S2140833307C4F04D3082A05D95200013A03E040F22C
S214083340FF7200E00F22B2FA82F241EA87070743CB
S214083350C2F11C0247EA021222F4D06222F00302EB
S214083360D204D20C13434CF80530012707FA06F6A8
S214083370B7B2022C00F28180464A0323434801264E
S214083380C56906FA03F1294209D00F43BFB2C569D9
S21408339025EA0101C161116821F002011160013BB3
S2140833A0043AD9B2A142EBD867E047FA04F313F01F
S2140833B0010F52D0631E03EB430C08EBCC052B7DA4
S2140833C003F001026FF300032B75A10001EB060A58
S2140833D056F8243043F0020346F824302B4BD869BD
S2140833E04FF0010B0BFA04FB4BEA0000D86159F8C2
S2140833F0243013F4802F0FD12B68002B39D0DAF83D
S214083400002012F4807F18BF44F080040120E96889
S21408341022469847002036E056F8243043F40073D6
S21408342046F82430CAB1EA682B69D31AEB608A5981
S21408343012F4807F14BF44F080002046297DD5F81A
S21408344004E0AD6858F83C200092C1F340010EEB4A
S2140834500302EB1A104DA84768B10134E4B2042CF5
S214083460A3D101200FE000200DE000200BE0002093
S21408347009E0002007E0002005E0DFF82080044E81
S214083480DFF81C9091E703B0BDE8F08F00C00A4053
S21408349000C10A400CC10A40D5310800BC160720F6
S2140834A030C10A4070B500F00F02561E4FF000718A
S2140834B0B140154B5961154901EB021100248C6087
S2140834C04FF480519140596110F0800F12D093004C
S2140834D00F4818440F4C1C444FF400550E49194425
S2140834E004E025600B6813F4005FFBD1036813F44F
S2140834F0405FF6D106EB4606084800EBC6000121F9
S214083500074B984770BD00BF00C00A4000C30A407A
S21408351030C10A40F0C10A40C0C10A40BC160720A4
S214083520E9240800054B1A6822F4406242F4006257
S2140835301A601A6842F400521A60704700C00A40BF
S214083540054B1A6822F4406242F400621A601A6850
S21408355042F480421A60704700C00A40034B1A685B
S21408356022F4406242F400621A60704700C00A40C3
S214083570F0B48EB0224C6E4604F13007354620680B
S2140835806168A268E3680FC510342E46BC42F5D1C0
S2140835902068286023792B711A4BDA6922F0010219
S2140835A0DA61194A116821F4CB5121F01C0141F463
S2140835B0895141F010011160116841F00201116053
S2140835C0DA6942F00102DA611A6822F4406242F4CB
S2140835D000621A601A6842F400421A606B460B4A88
S2140835E00DF1350013F8011B02F8011B8342F9D1CF
S2140835F04FF48042064B1A600EB0F0BC704700BF0E
S214083600A0B4080000C00A4000C10A400000182004
S21408361020C20A4010B40B0193420DD91AE0416843
S21408362041F40021416042EA03430362002020E09F
S21408363001201EE001201CE0D20002EB5302B2FB80
S214083640F3F3DA0803F00703541E4FF6FE718C42B4
S214083650E9D9EDE7C900D30003EB5103B3FBF1F357
S214083660DA0803F00703541E4FF6FE718C42D6D9CB
S214083670E0E75DF8044B7047084BC0F8E4300023D9
S21408368043604362836288230360242303604FF405
S214083690807303604FF4002303607047004153555E
S2140836A070B505460C4616460F4B984700210F4B3B
S2140836B019609CB12846216832460D4B9847034648
S2140836C070B9A16862680A4321690A43E068024340
S2140836D006490A6069680A436A6002E0012300E056
S2140836E00123184670BD00BF793608000817072062
S2140836F01536080040230360704700BF8023036028
S214083700704700BF10230360704700BF2023036084
S214083710704700BF4162704781607047C16070475C
S21408372000697047406970474FF4807303607047BC
S2140837304FF4006303607047FEE700BF10B51E4BEA
S2140837401E4A9A4203D01E4B1B4A9A4204D31D4B6C
S2140837501D4A9A420FD31AE01C4B1D4CE41A24F05B
S214083760030404340023144814495A581A500433DE
S214083770A342FAD1EBE7174B1749C91A21F0030100
S2140837801A1D1144002243F8042F8B42FBD1134A1A
S21408379022F0604323F07F0311498B6002F16042F8
S2140837A0B2F5801F03D28A6842F000528A600D4B39
S2140837B098470D4B9847FEE700000720C0CE080044
S2140837C0E00C0720605C0720E00C072004000720B8
S2140837D0E30C0720DC0C07205B5C072000000800D1
S2140837E000ED00E01D620800B15F08003E4B1B6B51
S2140837F003F00303032B5FD8DFE803F0020E2B2B3E
S2140838003A4B5B6913F0800F14BF4FF400424FF435
S214083810FA42374B1A604FE0334B1B6A13F0807F2F
S21408382003D0344A324B1A6046E0334A304B1A60AB
S2140838302D4B1B6A03F07003102B02D0202B04D0EC
S2140838403AE02E4A2A4B1A6036E02A4A284B1A6073
S21408385032E0254B1B6A13F0807F03D0254A244BA1
S2140838601A6012E0244A224B1A601F4B1B6A03F0A8
S2140838707003102B02D0202B04D006E01F4A1C4BE6
S2140838801A6002E01B4A1A4B1A60174B1B6B03F0B0
S2140838900303022B0DD1144B986A996A144BC0F394
S2140838A00A401A6800FB0222C9B2B2FBF1F21A609B
S2140838B002E0134A0E4B1A600B4B1B6B03F07003A7
S2140838C0702B07D10A4B1A680E49A1FB0202520850
S2140838D01A607047044B196B054BC1F302111A683E
S2140838E0CA401A60704700BF00060E40101A0E4005
S2140838F074020720001BB70000093D0000127A007A
S214083900001C4E0EABAAAAAA094B1B6813B9094A93
S214083910074B1A60064B1B681A180749914204DBC6
S2140839201046034A1060184670474FF0FF3070473D
S2140839300C170720607C0720FC7F08202DE9F0473D
S21408394081460024194EDFF88080194D3046002144
S2140839504F22C04755F82400164FB8470246484637
S21408396031464FF0FF33DFF864C0E047824655F82B
S2140839702400B847504504D00F484FF4A5710F4BA4
S2140839809847304655F824100D4B984720B10A48FA
S21408399040F24B11094B98470A4B1A6801321A60D5
S2140839A00134752C28BF0024D0E700BFB8170720BD
S2140839B078020720E567080000B50800895F080058
S2140839C0ED64080014170720C1630800D50C08002A
S2140839D02DE9F04782B08046294E341F06F5E87672
S2140839E0284DDFF8BC90284F54F8040FA8474F28F6
S2140839F003D9484640F20911B847B442F4D1012029
S214083A0000210322214B98470646002832D0002181
S214083A100A460B461E4CA047304600210A460B466F
S214083A201C4CA04700241C4DDFF854A0DFF8789003
S214083A3028465AF82410C8472846124B9847024684
S214083A400096404629466423144FB84720B11448C8
S214083A504FF492710C4B984730460021C8220B460B
S214083A600C4FB8470A200F4B98470134752C28BFCF
S214083A700024DDE70A484FF48971034B9847CBE7E3
S214083A8078020720E5670800895F080021450800D6
S214083A90B1450800E9470800181707204D0C08002C
S214083AA000B50800F9500800296708002DE9F0411C
S214083AB08EB086460F469046194D0AAE95E80F001A
S214083AC086E80F0004AC10350FCD0FC495E8030048
S214083AD084E80300704604A93246124B9847064607
S214083AE018B91148EF21114B9847CDF800800024EB
S214083AF00194029403940E480E493A4633460E4DF6
S214083B00A84708F1010300930194029403940B4814
S214083B100B493A463346A8470EB0BDE8F08100BFC9
S214083B20D8B40800590A080000B50800895F0800DC
S214083B30D139080058B50800314B08003D3908004F
S214083B405CB50800044B1B68044A10681360C01A6A
S214083B5018BF0120704700BF14170720101707204A
S214083B602DE9F04F83B0474B9847474B984708B91D
S214083B70464B9847464B984704464FF00009454D34
S214083B80454E2B1D019305F1080B444B1868002180
S214083B904FF0FF320B46424FB847424B1868002199
S214083BA04FF0FF320B46B847DFF81CA15FE03E4BEC
S214083BB098478046C7B238463C4B98470D2F3ED1AB
S214083BC03B4802213B4B9847B9F1000F03D12846E2
S214083BD039493A4B9847DFF8F480284621464FF48F
S214083BE0C872B04707462046C04701462046314BB4
S214083BF09847002FF1D130482946304B98472F6018
S214083C00019B1F605B4643F8047BCBF804700433C3
S214083C1043F8047B43F8047B43F8047B43F8047BAF
S214083C2043F8047B43F8047B43F8047B43F8047B9F
S214083C301F80234838211F4B9847B94617E00A2F9C
S214083C4015D0082F0AD1B9F1000F10D009F1FF39A5
S214083C505FFA89F9002305F8093008E0B9F1310F51
S214083C6005D805F8098009F101095FFA89F9D047EE
S214083C7000289CD10B4B186800210A460B46114FAA
S214083C80B84782E78D170800092708008D2808001E
S214083C90A93F080008180720B53E08003C1807206A
S214083CA0E9470800401807201114080039150800CD
S214083CB098C90800F1150800481807202967080061
S214083CC0FCC30800B145080051130800E567080062
S214083CD070B584B004460D46154B98470120002160
S214083CE00322144B9847144B186038B100210A4633
S214083CF00B46124EB047104B1B681BB91048702174
S214083D00104B98470120104B9847104A106018B976
S214083D100B4875210B4B9847009500230193029397
S214083D2003930B480B4922460B4CA04704B070BDC2
S214083D300D5F0800214508003C180720B14508001B
S214083D4038C40800895F0800E146080040180720C4
S214083D50613B080090C40800314B080070B5044663
S214083D600D4B1B7813F0FF0F14D00C4D286800215C
S214083D704FF0FF320B460A4EB0472046094B98478D
S214083D8001462046084B9847286800210A460B46F5
S214083D90064CA04770BD00BF4418072040180720EF
S214083DA0E9470800E5670800F1150800B14508006E
S214083DB008B510B1024B984708BD024B984708BD96
S214083DC08D2808000D2908000120014B187070473F
S214083DD04418072010B582B0002301930A4B1B68CD
S214083DE023B90A4840F22111094B9847064B186830
S214083DF0002101AA0B46074CA047019B0BB1064BB6
S214083E00984702B010BD00BF3C18072038C4080009
S214083E10895F080049470800194108000022014B3D
S214083E201A7070474418072038B50A46084B1B68AE
S214083E3013B90849064B1960054C25682B6859685C
S214083E40054B984768682060003018BF012038BDC9
S214083E507C180720500407205D69080038B5054619
S214083E6018B90E4867210E4B984708200D4B9847FF
S214083E70044628B909486B21094B9847002038BDE5
S214083E80094B9847256000236360084B1A685460FE
S214083E901C60074B9847012038BD00BFA8C408001F
S214083EA0895F080085420800394108004C0407204D
S214083EB0594108002DE9F84F06468A469346334B83
S214083EC01B68002B46D1324C304B1C60DFF8D48080
S214083ED0994627683D682846C0470246335633F059
S214083EE0200125D1304629462A4B984700BB397B06
S214083EF011F0800F41D13378ABB13046002214461A
S214083F00154601275BB2202B04D124B90132D2B260
S214083F103C4600E02C4610F8013F002BF2D11CB1BD
S214083F20013AD2B200E00022184B1B682BB91DE0FC
S214083F306468C9F80040CCB1CBE749B252B29142A6
S214083F4008D0504614495A46144B984700230F4A3F
S214083F50136017E01B689B685046594632469847D8
S214083F60034678B90021094A11600BE050460C490F
S214083F705A460A4B9847002304E0044B1B68002B5C
S214083F80F4D0E7E71846BDE8F88F00BF801807208A
S214083F9050040720A9680800ECC408005D690800FA
S214083FA044C50800E56708000048704784180720DD
S214083FB0F0B4002313600F4659B31E4622E0184695
S214083FC013F8014B4CB364B2202CF8D127E01846FE
S214083FD013F8014B65B2202DF9D0E4B10136BE4284
S214083FE010D190F9003033F0200109D0014613684B
S214083FF00133136011F9014F34F02005F7D183B966
S21408400000200EE0037843B15BB2202B07D0431C98
S214084010D5E7002005E0002003E00478DDE7431C30
S214084020D5E7F0BC704700BF00F1080343604FF0C7
S214084030FF328260C360036100230360704700BFDD
S21408404000230361704700BF43685A684A604268A5
S2140840508A605A6891605960416008610368013354
S2140840600360704710B40C68B4F1FF3F01D10369D0
S2140840700AE000F10803C2681268944204D35B6839
S2140840805A6812689442FAD25A684A6091608B60FD
S214084090596008610368013303605DF8044B704794
S2140840A0436882689A60836842685A6003695A68F7
S2140840B0824204BF82685A60002202611A68013A86
S2140840C01A601868704700BF03480068006880F3E5
S2140840D0088862B600DF00BF08ED00E04FF0807386
S2140840E040F8043C40F8081C002340F80C3C40F814
S2140840F0202C4038704700BF064B19680868B0E89F
S214084100F00F80F309884FF0000080F311884EF016
S2140841100D0E7047D85A07204FF08052014B1A6090
S214084120704700BF04ED00E0EFF311804FF0A001E8
S21408413081F311887047002008B5034B9847034B56
S2140841401A6801321A6008BD294108005804072079
S21408415080F31188704700BF08B5044A1368013B0E
S214084160136013B90020024B984708BD580407206F
S21408417051410800EFF309800C4B1A6820E9F00F4C
S21408418010602DE908404FF0A00080F3118801F078
S21408419001F94FF0000080F31188BDE8084019685F
S2140841A00868B0E8F00F80F309887047D85A0720E7
S2140841B008B54FF08052054B1A60054B9847054BDB
S2140841C098470020044B984708BD00BF04ED00E060
S2140841D029410800C14E080051410800034A044B13
S2140841E01A600722043B1A60704700BF1F48010088
S2140841F014E000E010B5094B1A6842F470021A6021
S2140842001A6842F070421A60054B98470024054B1E
S2140842101C60054B9847204610BD00BF20ED00E007
S214084220DD41080058040720C940080030B4134A86
S2140842301368834201D21A46FAE7114654681519DC
S214084240854203D16868044454601046426884185E
S214084250A3420CD10A4C24689C4206D05B681A44D8
S21408426042600B681B68036002E0036000E00360BE
S214084270814218BF086030BC704700BF1C5A072030
S214084280185A072038B50446294B9847294B1B6807
S2140842909BB9294A294B13600021516043F6F072F6
S2140842A09818244D286043F6F475595199505A6069
S2140842B01860234B1A68103A1A60002C32D004F1A2
S2140842C0100212F0070F1CBF22F007020832511E18
S2140842D043F6FE73994225D817490C6863689A42D4
S2140842E004D9236813B121461C46F7E7114B1B680F
S2140842F09C4217D00D68103523680B6063689B1ABC
S214084300202B04D9A018436062600E4B98470C4BCC
S2140843101A686168521A1A600B4B984735B90B4BE6
S214084320984703E0084B98470025F8E7284638BD25
S214084330714E0800185A07201C5A0720181A07201A
S2140843405C0407202D420800E94F0800715F08004A
S21408435010B5044668B1074B9847074B196854F8D8
S2140843600C2C0A441A60A4F11000044B9847044B1E
S214084370984710BD714E08005C0407202D420800BF
S214084380E94F080010B50446036C3BB903681BBB2D
S2140843904068134B9847002363601DE06AB980683D
S2140843A01A46104B9847A268236C1344A3606268A9
S2140843B0934211D32368A3600EE0C0681A46094BDF
S2140843C09847226C5242E3681344E36021688B42A4
S2140843D002D263681A44E260A36B0133A36310BD7C
S2140843E06D570800D562080038B5034605685DB104
S2140843F0026CC4681444C4604068844228BFDD6008
S2140844000846D968014B984738BD00BFD5620800F2
S214084410F8B504461D4B9847A36C002B12DD636A5B
S21408442083B104F124061A4D1A4F01E0636A4BB1B2
S2140844303046A84700B1B847A36C013BA364A36CF9
S214084440002BF3DC4FF0FF33A364134B98470F4B56
S2140844509847636C002B12DD236983B104F11006BC
S2140844600B4D0C4F01E023694BB13046A84700B10D
S214084470B847636C013B6364636C002BF3DC4FF056
S214084480FF336364044B9847F8BD00BF3941080002
S21408449055550800995608005941080038B50D4684
S2140844A0044620B9174840F21B11174B9847174B7C
S2140844B098472368226CE06B00FB02F019186160CD
S2140844C00021A163A360821A1344E3604FF0FF3310
S2140844D06364A36455B923697BB104F110000C4BDF
S2140844E09847012809D10B4B984706E004F11000BD
S2140844F0094DA84704F12400A847084B984701200F
S21408450038BD00BFCCC50800895F080039410800DF
S2140845105555080019410800294008005941080067
S214084520F8B50D4617460646B8B150200F4B9847C3
S214084530044690B105FB06F001300C4B9847206006
S21408454040B1E663256420460121094B984784F864
S2140845504D7008E02046074B9847074840F271110F
S214084560064B984700242046F8BD00BF8542080041
S2140845709D44080051430800CCC50800895F080020
S21408458038B50D4600210222064B9847044608B166
S214084590856304E004484FF40F71044B984720469F
S2140845A038BD00BF21450800CCC50800895F080053
S2140845B02DE9F04F85B08B4601920093044620B94A
S2140845C03A484FF412713A4B9847BBF1000F06D1A0
S2140845D0236C23B1354840F24921354B98474FF0B4
S2140845E00009344DDFF8F4A0334EA847A26BE36BFE
S2140845F09A4212D220465946009A304B9847636A28
S2140846003BB104F124002E4B9847012801D12D4BCD
S2140846109847294B9847012044E0019B1BB9264B35
S214084620984700203EE0B9F1000F03D102A8D04712
S2140846304FF00109B047244B9847A847636CB3F17D
S214084640FF3F04BF00236364A36CB3F1FF3F04BFBE
S2140846500023A364B04702A801A91C4B9847D8B901
S214084660A847D4F83880E76BB047B8450ED104F1B0
S21408467010000199164B98472046164B9847164B3C
S21408468098470028B1D10F4B9847AEE72046114B04
S2140846909847114B9847A8E720460E4B98470E4B6D
S2140846A09847002005B0BDE8F08F00BFCCC50800CD
S2140846B0895F080039410800594108008543080009
S2140846C05555080019410800714E08000D56080097
S2140846D06954080011440800E94F0800DD55080031
S2140846E070B506465020134B98470446D8B10025A7
S2140846F0456005608560C56085630123C3630564FE
S2140847004FF0FF334364836480F84D6010300A4EE0
S214084710B04704F12400B047204629462A462B46CF
S214084720064DA84704E0064840F2AB11054B9847EB
S214084730204670BD8542080029400800B14508009B
S214084740CCC50800895F08002DE9F0410D46904663
S2140847501F46044620B91E4840F28F311D4B984725
S21408476035B9236C23B11A484FF46471194B98472E
S214084770194988470646A06BE16B88421BD220463B
S21408478029463A46154B9847A36CB3F1FF3F0DD11F
S214084790636A93B104F12400114B984778B1B8F1D5
S2140847A0000F0ED00124C8F800400BE0A36C0133BC
S2140847B0A364012406E0002404E0012402E00124A6
S2140847C000E001243046074B98472046BDE8F081B4
S2140847D0CCC50800895F0800294108008543080001
S2140847E055550800514108002DE9F04F85B0894617
S2140847F001929A46044620B9464840F2CB31464BC9
S2140848009847B9F1000F06D1236C23B141484FF4FD
S2140848107371414B98470027404DDFF83081404E72
S214084820A847A26B002A28D0E568204649463D4B93
S2140848309847BAF1000F12D1A36B013BA363236814
S21408484013B9394B98476060236993B104F1100097
S214084850364B984701280CD1354B984709E0E56058
S214084860636A33B104F12400304B984708B1304BE3
S21408487098472B4B9847012048E0019B1BB9284BCB
S2140848809847002042E017B902A8C0470127B0475A
S214084890284B9847A847636CB3F1FF3F04BF002333
S2140848A06364A36CB3F1FF3F04BF0023A364B0475F
S2140848B002A801A9204B984710BBA847D4F838B0DF
S2140848C0B047BBF1000F15D1236823B9A847606825
S2140848D01A4B9847B04704F124000199184B98479B
S2140848E02046184B9847184B9847002898D1104BE5
S2140848F0984795E72046134B9847134B98478FE7FA
S2140849002046104B9847104B9847002005B0BDE846
S214084910F08F00BFCCC50800895F08003941080041
S21408492059410800E9430800A556080055550800EF
S21408493019410800714E08000D560800D1560800A7
S2140849406954080011440800E94F0800DD550800BE
S21408495038B504460D460D4B9847636CB3F1FF3FD8
S21408496004BF00236364A36CB3F1FF3F04BF0023B6
S214084970A364074B9847A36B23B904F12400294680
S214084980044B98472046044B984738BD39410800E1
S21408499059410800ED5408001144080010B50446B3
S2140849A00E4B1B6858600E4B1B68984207D20D4B7F
S2140849B018680A4B196804310B4B984710BD0B4B07
S2140849C01868064B19680431074B9847084B1B684C
S2140849D09C423CBF064B1C6010BD00BFD85A07203F
S2140849E02C5A0720945A072065400800AC5A07201E
S2140849F0600407202DE9F04F85B082460D469346A1
S214084A004B685B684B6001F10807BB4204BF5B68F4
S214084A104B604B68D3F80C90174EDFF864806B68D1
S214084A205B686B609F4204BF7B686B606B68DC6882
S214084A30226B1378A52B07D1002301339BB212F8FB
S214084A40011FA529F9D000E00023E16A226C009135
S214084A509B08019302923046414604F134025B46B5
S214084A60DFF820C0E04750463146044B98474C458F
S214084A70D5D105B0BDE8F08FDC5A0720A164080040
S214084A800CC60800556408002DE9F04F83B083462D
S214084A900D4616464B685B684B6001F10807BB423B
S214084AA004BF5B684B604B68D3F80C80DFF87890DF
S214084AB0DFF878A06B685B686B609F4204BF7B6812
S214084AC06B606B68DC680EB3E36C33B94846124912
S214084AD004F13402114B984715E0E26CB2FBF6F28B
S214084AE04AB1E36C009248460D4904F13402DFF8F7
S214084AF02CC0E04707E0E36C48460A4904F1340254
S214084B00DFF818C0E04758464946D0474445D1D153
S214084B1003B0BDE8F08F00BF20C608005564080043
S214084B2030C6080040C60800045B0720A1640800D9
S214084B302DE9F84F0E4693469A460C9D814620B9B5
S214084B40654840F2EB11654B98470A9A042A04D93F
S214084B5061484FF4F671614B98475020604B984770
S214084B600446002800F0B380002D40F0AD804FEAE0
S214084B708B005B4B9847206318B92046594B9847DB
S214084B80A5E0A5214FEA8B02574B98470BF1804BBF
S214084B900BF1FF3B236B03EB8B0B2BF0070B04F19E
S214084BA0340031460A22514B9847002784F83D7056
S214084BB00A9D042D28BF0425E562A564261D3046F7
S214084BC0DFF87881C04704F11800C0472461C5F1B2
S214084BD00505A5616462E764584649465246444B53
S214084BE09847206010F0070F04D03B484FF40C712C
S214084BF03A4B98470B9B03B11C603E4B98473E4B7D
S214084C001A6801321A603D4B1B6813BB3B4B1C608D
S214084C10394B1B68012B27D1394D05F16408394FEC
S214084C202846B84714354545FAD1DFF8148140467A
S214084C30344DA847344F3846A8473448A847344820
S214084C40A8473448A847344BC3F80080334B1F6046
S214084C500AE0334B1B683BB9284B1B68DB6A0A9A89
S214084C609A4224BF254B1C60E06A2E4B1B6898426C
S214084C7084BF2C4B18602C4B1A68226401321A60C9
S214084C802A4B1968012282400A431A6000EB80000A
S214084C901B4B03EB80003146254B9847254B98471E
S214084CA01F4B1B6853B1154B1B68DB6A0A9A9A425E
S214084CB007D9214B98470120BDE8F88F0120BDE8A9
S214084CC0F88F0120BDE8F88F0563284659E74FF0AE
S214084CD0FF30BDE8F88F00BF50C60800895F08009F
S214084CE08542080051430800C16308005D69080052
S214084CF0DD40080039410800B05A0720D85A072076
S214084D00305A072029400800605B0720B45A07205D
S214084D10985A0720385B0720AC5A0720945A072071
S214084D20C85A0720805B0720D45A0720245A072031
S214084D304940080059410800194108004140080048
S214084D404C5B072070B504461E4B98471E4B1B68E5
S214084D509C4203D026462CB9264600E000261A4B6D
S214084D601C68FFE7251D2846184B984770B9E36A64
S214084D7003EB8302920016498A583AB9154A116815
S214084D80012000FA03F321EA03031360A36A1BB1A8
S214084D9004F118000D4B98470F4829460F4B9847C3
S214084DA00F4B1A6801321A600E4B1A6801321A60E5
S214084DB00D4B98470D4B1B6813B10EB90C4B984713
S214084DC070BD00BF39410800D85A0720A140080026
S214084DD0305A0720245A0720985A072049400800C6
S214084DE0285A0720D45A072059410800C85A0720CD
S214084DF01941080010B584B000230093019302936C
S214084E00039310481049A022104CA047012810D13F
S214084E100F4B984701280CD10E4B984701220E4B92
S214084E201A6000220D4B1A600D4B98470D4B984799
S214084E3005E020B90C4840F213510C4B984704B0D3
S214084E4010BD00BF5D51080090C60800314B080031
S214084E508558080029410800C85A07202C5A0720F8
S214084E60B1610800F541080050C60800895F0800CF
S214084E70024B1A6801321A60704700BF745B07203D
S214084E8010B5044B9847044B1C68044B98472046BB
S214084E9010BD00BF394108002C5A072059410800A8
S214084EA010B5044B9847044B1C68044B984720469B
S214084EB010BD00BF294108002C5A072051410800A0
S214084EC02DE9F0413B4B1B68002B6DD13A4B1A6815
S214084ED001321A601B680BBB384B1B681B6823B172
S214084EE0374840F28C61374B9847344B1968364A36
S214084EF0106818601160354A1168013111601B6826
S214084F001B6823B94FF0FF32314B1A6006E02B4B73
S214084F101B68DB68DB685A682D4B1A60264B1A68D4
S214084F202B4B1B689A4243D3244B1B681B684BB118
S214084F30224B1B68DB68DC6863681F4A126893426A
S214084F4013D90EE04FF0FF32214B1A60BDE8F0810E
S214084F501A4B1B68DB68DC686368174A126893425A
S214084F6007D91B4A1360BDE8F0811A4F1A4EDFF8BE
S214084F707480251D2846B847A36A13B104F11800A3
S214084F80B847E36A316801229A400A43326003EB65
S214084F90830008EB80002946104B9847074B1B6890
S214084FA01B68002BD4D1CDE70D4B1A6801321A6066
S214084FB0BDE8F081745B07202C5A0720AC5A0720FE
S214084FC050C60800895F0800945A07207C5B0720B3
S214084FD060040720A1400800245A0720494008001A
S214084FE0785B0720305A07202DE9F843324B1B68B8
S214084FF023B9324840F24D51314B9847314B9847C8
S2140850002D4B1A68013A1A601B68002B49D12E4BA3
S2140850101B68002B47D000272C4EDFF8D490DFF80B
S214085020D4801EE0F368DC6804F11800C847251D24
S2140850302846C847E36AD8F8001001229A400A436F
S214085040C8F8002003EB8303214800EB83002946B9
S214085050204B9847204B1B68E26ADB6A9A4228BFB7
S21408506001273368002BDDD11C4B1B6863B11B4B33
S2140850701B687BB11A4D194CA8472368013B23606F
S2140850802368002BF8D105E0012F03D0154B1B68C9
S214085090012B0AD10022134B1A60134B98470124A0
S2140850A004E0002402E0002400E000240F4B9847A8
S2140850B02046BDE8F88300BF745B072050C608008A
S2140850C0895F080039410800B05A0720B45A0720FB
S2140850D0305A072049400800D85A0720785B07202E
S2140850E0C14E0800D05A0720194108005941080047
S2140850F0A1400800245A072010B50446D8B10F4B23
S21408510098470F4B1B681C440E4B186804300E4B10
S214085110984750B90B4B1A680C4B1968D26A01208D
S21408512000FA02F221EA02021A602046084B984763
S214085130084B984708B9084B984710BD714E0800A9
S2140851402C5A0720D85A0720A1400800245A0720BE
S2140851509D490800E94F08001941080080B5154D1B
S214085160154EDFF878801CE0144B9847144B1C68E3
S214085170144B9847ACB1144B9847114BDB68DC6866
S214085180201D124B9847124B1A68013A1A602B6872
S214085190013B2B600F4B9847206B0F4FB8472046B4
S2140851A0B8472B68002BDFD13368012BF9D9C047E5
S2140851B0F7E700BF285A0720305A0720714E080024
S2140851C0985A0720E94F080039410800A14008000E
S2140851D0B05A0720594108005143080019410800F1
S2140851E02DE9F8430646274B984700233370304688
S2140851F0254B98473218254B19889B78315293705F
S214085200234B1D686C1C05EB8505224B03EB8505B7
S2140852101F464FF05209DFF88480013C04EB8403F4
S21408522057F823301BB1304629464A46C047143D36
S214085230002CF2D1184B1B681B682BB1164B19684B
S21408524030464222154B9847154B1B681B682BB1F6
S214085250134B196830464222104B9847114B1B686F
S21408526023B130460F4944220C4B98470E4B1B6817
S21408527023B130460C495322084B98470B4B9847A6
S214085280BDE8F883714E0800E567080098C908006D
S214085290805B0720305A0720AC5A0720F5490800DB
S2140852A0945A0720985A0720385B0720E94F0800C9
S2140852B02DE9F84306462A4B98472A4B98472A4B27
S2140852C0A3FB00284FEA5818002333703046274BB4
S2140852D098473218264B19889B7831529370254B7D
S2140852E01D686C1C05EB8505234B03EB85051F46DF
S2140852F0DFF88C90013C04EB840357F823301BB18D
S214085300304629464246C847143D002CF2D11B4B6E
S2140853101B681B682BB1194B196830464246184B58
S2140853209847184B1B681B682BB1164B19683046F4
S2140853304246134B9847144B1B6823B13046124914
S21408534042460F4B9847114B1B6823B130460F490E
S21408535042460B4B98470E4B9847BDE8F88300BF6C
S214085360714E0800C16108001F85EB51E56708000B
S21408537098C90800805B0720305A0720AC5A0720D7
S214085380894A0800945A0720985A0720385B07204D
S214085390E94F080038B5284B1B681BB10122274B7C
S2140853A01A6038BD264B9847264B1968264ACD6C96
S2140853B014682C1B0444CC6410601A681B681268B6
S2140853C01B6B9A4205D81F4B1868196834311F4B57
S2140853D098471C4B1B68186B1D4914221D4B984791
S2140853E028B1184B186819683431184B98471A4B67
S2140853F01C68B4FA84F4E4B2C4F11F0404EB840312
S2140854009B00164AD35823B9154840F23E71154BEF
S214085410984704EB8404114A02EB84035A685268DE
S2140854205A6003F108018A4204BF52685A605B68F2
S214085430DA68044B1A6038BD745B0720D05A072018
S214085440C1610800D85A0720CC5A07207D5F08009B
S21408545098C608006D620800245A0720305A0720AC
S21408546050C60800895F080070B50D46064620B984
S214085470144840F24971144B9847144C216830463A
S2140854801831134B984720680430124B984748B990
S2140854902268114B1968D26A012000FA02F221EA42
S2140854A002021A60B5F1FF3F06D1084B19680B488F
S2140854B004310B4B984770BD0A4B186828440A4BB2
S2140854C0984770BD50C60800895F0800D85A07205C
S2140854D065400800A1400800245A0720385B0720CA
S2140854E0494008002C5A07209D49080070B50D460B
S2140854F0064620B90F4840F27F710F4B98470F4C6D
S2140855002168304618310E4B9847206804300D4BFA
S214085510984748B922680C4B1968D26A012000FAE5
S21408552002F221EA02021A60084B18682844084B5F
S214085530984770BD50C60800895F0800D85A0720EB
S21408554049400800A1400800245A07202C5A072082
S2140855509D49080038B5C368DC6824B9164840F287
S214085560B571164B984704F118052846144B98470A
S214085570144B1B689BB9251D2846114B9847E36AB0
S214085580114A1068012199400143116003EB830317
S2140855900E4800EB830029460D4B984703E00D485C
S2140855A029460B4B98470C4B1B68E06ADB6A984207
S2140855B034BF0020012038BD50C60800895F0800A7
S2140855C0A1400800745B0720245A0720305A072099
S2140855D049400800B45A0720D85A072010B5044690
S2140855E020B9064840F2D771054B9847054B1B680B
S2140855F02360054B1B68636010BD00BF50C60800DB
S214085600895F08007C5B07202C5A072038B50C46B3
S214085610054620B9194840F2E171194B984724B954
S214085620164840F2E271164B9847164B984723687F
S214085630B3F1FF3F19D0144A11682A688A4204D089
S214085640124A11686A688A4211D9104A11686A684B
S214085650891A8B420DD90D490968521A13442360DA
S21408566028460B4B9847002404E0002402E0012457
S21408567000E00124074B9847204638BD50C608006E
S214085680895F0800394108007C5B07202C5A0720F0
S214085690DD550800594108000122014B1A60704781
S2140856A0D05A0720014B1868704700BFD85A072001
S2140856B0054B1B6833B1054B1B68002B14BF022033
S2140856C00120704700207047C85A0720745B0720DF
S2140856D038B5044600283ED0C36A1F4A1268D26A04
S2140856E0934238D21C4A1268D26AC2F10502826115
S2140856F003EB8303194A02EB830342699A4226D1D5
S214085700051D2846164B984770B9E36A03EB8302D3
S214085710920012498A583AB9124A1168012000FACA
S21408572003F321EA030313600B4B1B68DB6AE3628F
S2140857300C4A1068012199400143116003EB83036A
S214085740064800EB83002946074B984738BD024BAE
S2140857501B68DB6AC36238BDD85A0720305A072050
S214085760A1400800245A07204940080038B50446D6
S21408577050B3C26A836C9A4226D0051D2846134B3E
S214085780984770B9E36A03EB8302920010498A5877
S2140857903AB9104A1168012000FA03F321EA030314
S2140857A01360A36CE362C3F10502A261094A10689C
S2140857B0012199400143116003EB8303044800EB81
S2140857C083002946044B984738BD00BFA14008000F
S2140857D0305A0720245A07204940080010B50446C6
S2140857E04160206191420AD8D21A81698A4211D250
S2140857F00A4B1868211D0A4B9847002010BD9A428C
S21408580001D2994208D2074B1868211D044B9847C5
S214085810002010BD012010BD012010BDB85B072078
S21408582065400800845B072070B50D4B98470D4B04
S2140858301B688BB90C4D28460C4EB0470C4C2046BE
S214085840B0470C4B1D600C4B1C6005200C21002239
S2140858500A4B9847034B1860094B984770BD00BF22
S21408586039410800B45B0720885B072029400800F8
S2140858709C5B0720845B0720B85B0720214508004F
S2140858805941080010B584B00D4B98470D4B1B685E
S21408589073B10423009300230193029303930A48E9
S2140858A00A494FF4A0720A4CA047044628B900E0FB
S2140858B000240848D721084B9847204604B010BD56
S2140858C029580800B45B0720455A0800ACC60800EB
